:020000040000fa
:080000000002040000000000f2
:020000040000fa
:04000800ec02000006
:020000040000fa
:04000c00b00200003e
:020000040000fa
:04001000b602000034
:020000040000fa
:04001400bc0200002a
:020000040000fa
:04001800c202000020
:020000040000fa
:04001c00c802000016
:020000040000fa
:04002000ec020000ee
:020000040000fa
:04002400ec020000ea
:020000040000fa
:04002800ec020000e6
:020000040000fa
:04002c00ec020000e2
:020000040000fa
:04003000ec020000de
:020000040000fa
:04003400f0020000d6
:020000040000fa
:04003800ec020000d6
:020000040000fa
:04003c00ec020000d2
:020000040000fa
:04004000ec020000ce
:020000040000fa
:04004400ec020000ca
:020000040000fa
:04004800ec020000c6
:020000040000fa
:04004c00ec020000c2
:020000040000fa
:04005000ec020000be
:020000040000fa
:04005400880300001d
:020000040000fa
:040058009803000009
:020000040000fa
:04005c00ec020000b2
:020000040000fa
:04006000ec020000ae
:020000040000fa
:04006400ec020000aa
:020000040000fa
:04006800400500004f
:020000040000fa
:04006c00300500005b
:020000040000fa
:04007000ec0200009e
:020000040000fa
:04007400ec0200009a
:020000040000fa
:04007800ec02000096
:020000040000fa
:04007c00ec02000092
:020000040000fa
:04008000ec0200008e
:020000040000fa
:04008400ec0200008a
:020000040000fa
:04008800ec02000086
:020000040000fa
:04008c00ec02000082
:020000040000fa
:04009000ec0200007e
:020000040000fa
:04009400ec0200007a
:020000040000fa
:04009800ec02000076
:020000040000fa
:04009c00ec02000072
:020000040000fa
:0400a00080080000d4
:020000040000fa
:0400a40090080000c0
:020000040000fa
:0400a800ec02000066
:020000040000fa
:0400ac00ec02000062
:020000040000fa
:0400b000ec0200005e
:020000040000fa
:0400b400ec0200005a
:020000040000fa
:0400b800ec02000056
:020000040000fa
:0400bc00ec02000052
:020000040000fa
:0400c000ec0200004e
:020000040000fa
:0400c400ec0200004a
:020000040000fa
:0400c800ec02000046
:020000040000fa
:0400cc00ec02000042
:020000040000fa
:0400d000ec0200003e
:020000040000fa
:0400d400ec0200003a
:020000040000fa
:0400d800ec02000036
:020000040000fa
:0400dc00ec02000032
:020000040000fa
:0400e000ec0200002e
:020000040000fa
:0400e400ec0200002a
:020000040000fa
:0400e800ec02000026
:020000040000fa
:0400ec00ec02000022
:020000040000fa
:0400f000ec0200001e
:020000040000fa
:0400f400ec0200001a
:020000040000fa
:0400f800ec02000016
:020000040000fa
:0400fc00ec02000012
:020000040000fa
:04010000ec0200000d
:020000040000fa
:04010400ec02000009
:020000040000fa
:04010800ec02000005
:020000040000fa
:04010c00ec02000001
:020000040000fa
:04011000ec020000fd
:020000040000fa
:04011400ec020000f9
:020000040000fa
:04011800ec020000f5
:020000040000fa
:04011c00ec020000f1
:020000040000fa
:04012000ec020000ed
:020000040000fa
:04012400ec020000e9
:020000040000fa
:04012800ec020000e5
:020000040000fa
:04012c00ec020000e1
:020000040000fa
:04013000ec020000dd
:020000040000fa
:04013400ec020000d9
:020000040000fa
:04013800ec020000d5
:020000040000fa
:04013c00ec020000d1
:020000040000fa
:04014000ec020000cd
:020000040000fa
:04014400ec020000c9
:020000040000fa
:04014800ec020000c5
:020000040000fa
:04014c00ec020000c1
:020000040000fa
:04015000ec020000bd
:020000040000fa
:04015400ec020000b9
:020000040000fa
:04015800ec020000b5
:020000040000fa
:04015c00ec020000b1
:020000040000fa
:04016000ec020000ad
:020000040000fa
:04016400ec020000a9
:020000040000fa
:04020800ec02000004
:020000040000fa
:04020c00ce0200001e
:020000040000fa
:04021000d402000014
:020000040000fa
:04021400da0200000a
:020000040000fa
:04021800e002000000
:020000040000fa
:04021c00e6020000f6
:020000040000fa
:04022000ec020000ec
:020000040000fa
:04022400ec020000e8
:020000040000fa
:04022800ec020000e4
:020000040000fa
:04022c00ec020000e0
:020000040000fa
:04023000ec020000dc
:020000040000fa
:04023400ec020000d8
:020000040000fa
:04023800ec020000d4
:020000040000fa
:04023c00ec020000d0
:020000040000fa
:04024000ec020000cc
:020000040000fa
:04024400ec020000c8
:020000040000fa
:04024800ec020000c4
:020000040000fa
:04024c00ec020000c0
:020000040000fa
:04025000ec020000bc
:020000040000fa
:04025400ec020000b8
:020000040000fa
:04025800ec020000b4
:020000040000fa
:04025c00ec020000b0
:020000040000fa
:04026000ec020000ac
:020000040000fa
:04026400ec020000a8
:020000040000fa
:04026800ec020000a4
:020000040000fa
:04026c00ec020000a0
:020000040000fa
:04027000ec0200009c
:020000040000fa
:04027400ec02000098
:020000040000fa
:04027800ec02000094
:020000040000fa
:04027c00ec02000090
:020000040000fa
:04028000ec0200008c
:020000040000fa
:04028400ec02000088
:020000040000fa
:04028800ec02000084
:020000040000fa
:04028c00ec02000080
:020000040000fa
:04029000ec0200007c
:020000040000fa
:04029400ec02000078
:020000040000fa
:04029800ec02000074
:020000040000fa
:04029c00ec02000070
:020000040000fa
:0402a000ec0200006c
:020000040000fa
:0402a400ec02000068
:020000040000fa
:0402a800ec02000064
:020000040000fa
:0402ac00ec02000060
:020000040000fa
:0402b000ec0200005c
:020000040000fa
:0402b400ec02000058
:020000040000fa
:0402b800ec02000054
:020000040000fa
:0402bc00ec02000050
:020000040000fa
:0402c000ec0200004c
:020000040000fa
:0402c400ec02000048
:020000040000fa
:0402c800ec02000044
:020000040000fa
:0402cc00ec02000040
:020000040000fa
:0402d000ec0200003c
:020000040000fa
:0402d400ec02000038
:020000040000fa
:0402d800ec02000034
:020000040000fa
:0402dc00ec02000030
:020000040000fa
:0402e000ec0200002c
:020000040000fa
:0402e400ec02000028
:020000040000fa
:0402e800ec02000024
:020000040000fa
:0402ec00ec02000020
:020000040000fa
:0402f000ec0200001c
:020000040000fa
:0402f400ec02000018
:020000040000fa
:0402f800ec02000014
:020000040000fa
:0402fc00ec02000010
:020000040000fa
:04030000ec0200000b
:020000040000fa
:04030400ec02000007
:020000040000fa
:04030800ec02000003
:020000040000fa
:04030c00ec020000ff
:020000040000fa
:04031000ec020000fb
:020000040000fa
:04031400ec020000f7
:020000040000fa
:04031800ec020000f3
:020000040000fa
:04031c00ec020000ef
:020000040000fa
:04032000ec020000eb
:020000040000fa
:04032400ec020000e7
:020000040000fa
:04032800ec020000e3
:020000040000fa
:04032c00ec020000df
:020000040000fa
:04033000ec020000db
:020000040000fa
:04033400ec020000d7
:020000040000fa
:04033800ec020000d3
:020000040000fa
:04033c00ec020000cf
:020000040000fa
:04034000ec020000cb
:020000040000fa
:04034400ec020000c7
:020000040000fa
:04034800ec020000c3
:020000040000fa
:04034c00ec020000bf
:020000040000fa
:04035000ec020000bb
:020000040000fa
:04035400ec020000b7
:020000040000fa
:04035800ec020000b3
:020000040000fa
:04035c00ec020000af
:020000040000fa
:04036000ec020000ab
:020000040000fa
:04036400ec020000a7
:020000040000fa
:100400000fb220000e7f24000e01880000000000c3
:10041000000020000000e000020032000001200087
:10042000200288000c00070040c7230001002000c4
:1004300011000700000020000000e0000200320070
:10044000000002000000000066360200000000000c
:100450000040da000000fe004440a9000015200022
:100460000000e0000300320000002000a00188002e
:100470004440a80000000600910188008000780038
:100480000000eb0015003700e280400032a0b4000d
:100490009101ba00e280400032a0b4009102ba009b
:1004a000e280400032a0b4000002eb00472bde00e7
:1004b000f507b200602ce10004003a000059eb009f
:1004c0008301e900fdff3e00040037006128e100e0
:1004d000010032000082eb000b00070011c3ba00dc
:1004e0001101ba000604e00003003a000200e00037
:1004f000e5ff3a0000000600f607b200960188000a
:1005000082007800f5ff37003159ba008301e90015
:100510000c0032002159ba008301e90008003200c2
:100520000400e00003003a00e280400032a0b40082
:10053000f5ff370011d9ba008301e900faff3a004c
:100540008100e800e180400032a0b4000000060015
:1005500048050400000000006e05040000000000d3
:100560000000fa008020a900ffff37000000fa0019
:100570008060a900ffff37000000fa008040a9005a
:10058000ffff37000000fa008080a900ffff37005e
:100590000000fa0080a0a900ffff37000000fa0069
:1005a0008020a900ffff37000000fa008060a9004a
:1005b000ffff37000000fa008040a900ffff37006e
:1005c0000000fa008080a900ffff37000000fa0059
:1005d00080a0a900ffff37000000fa00ffff3700ee
:1005e000809fbe000000fa008460a9007043800074
:1005f0008143800061004000e08048007043880033
:100600008143880090438000a14380006100400046
:10061000e080480090438800a1438800b0438000f8
:1006200000f0a7000000ea000000e9004f00de0033
:10063000b04388000080fa004f00be000040060072
:100640000000fa0005e1a9000421a90004c1a900e5
:10065000200880000040a0000050a1002008880071
:100660000021ef00e03721001008880020058000fd
:1006700000c0a00000d0a10000e0a100200588007b
:100680008460a90005e1a8000080fa0000000600cf
:100690000000fa0070438000814380000080fa006f
:1006a000000006000000fa00100880006101b80098
:1006b00090438000a1438000009ab90004027800b2
:1006c000028bb90086027800050242000010b800d3
:1006d0000102420084007800020880008001eb00e3
:1006e000000041008180490069040700825a23000c
:1006f000d3e42300bb0407000080fa0000000600da
:100700000000fa00b04380000080fa0000000600fc
:10071000801f78000000fa00301180002016880049
:100720008560a9000080fa004f00780000400600b4
:100730000000fa008580a9000080fa000040060051
:100740000000fa0021e2a90021a2a9002182a9004b
:100750002162a900001180000080a1000090a1008a
:100760000011880020e2a90020c2a90020a2a9004f
:100770002062a900001180000010a1000020a1004b
:10078000001188002002a9004001200040118800cb
:1007900023e2a90023c2a90023a2a9002362a90081
:1007a0002342a9002322a9002302a90010118000de
:1007b0000060a1000070a1001011880022a2a90011
:1007c0002282a9002262a9002242a9002222a900b5
:1007d0002202a90000402400900588008580a9001d
:1007e0009580a8008560a9009560a9005136800019
:1007f000f00f2e00808060000030200001007000ab
:10080000503688002135800000fe2f0000806000f7
:10081000e000b3002035880021e2a8002342a800b0
:100820000080fa00000006000000fa0021e2a900a2
:1008300021a2a9002182a9002162a9000011800043
:100840000080a1000090a1000011880020e2a90012
:1008500020c2a90020a2a9002062a90000118000e6
:100860000010a1000020a100001188002002a900b2
:10087000400120004011880023e2a90023c2a90002
:1008800023a2a9002362a9002342a9002322a900d0
:100890002302a900101180000060a1000070a100d7
:1008a0001011880022a2a9002282a9002262a900b8
:1008b0002242a9002222a9002202a900004024000d
:1008c000900588008580a9009580a8008560a90012
:1008d0009560a90061368000f00f2e0080806000d6
:1008e0000030200001007000603688002135800053
:1008f00000fe2f0000806000c000b300203588009b
:1009000021e2a8002342a8000080fa0000000600af
:100910000200fa00004f78001e80fb0020118800c2
:100920000080fa00000006000400fa00100798009a
:100930009e009000010f78000011800066006000aa
:10094000e60f50001f003a000d00370000000000c5
:100950001111800000202000008060000000e000f5
:10096000fbff3a001e009000104078000080fb0062
:10097000201188001e0090000000e8001007980079
:100980001e009000104078000004e000efff3a00e5
:10099000110037000000000011118000002020002d
:1009a000008060000000e000fbff3a001e007800bd
:1009b000104078000000fb00201188001e0fe800a6
:1009c00001003700000000001e0078001040780091
:1009d0000004e000efff3a000080fa00000006008b
:1009e0000000fa000011800066006000e60f500071
:1009f00002003a00301180000300370031118000fe
:100a0000f00f2000008060000080fa000000060067
:100a10000000fa0010118000004078006140600082
:100a20000080fa00000006000200fa00000f7800c3
:100a30000011800066006000e60f500003003a00dd
:100a40009e0078002111880003003700f00f20007d
:100a50001e006000201188000080fa0000000600df
:100a6000801f78000000fa0010002000c0438800ba
:100a70008620a9000080fa004f00780000400600a0
:100a80000000fa008600a9000080fa00004006007d
:100a90000200fa00000f78001e0078008000eb00d2
:100aa000010878001e0078008000eb00110098001b
:100ab0000742a9000782a800d00520002010880066
:100ac0000a22ef000c22ef0007e2a8009620a800ff
:100ad0008620a9000080fa00000006000400fa0049
:100ae00010079800d0438000cf80de004201200034
:100af00003002000820f5000838f58007e013e00cb
:100b000000600100140037001e003700220037008b
:100b10002e003700480037005700370070003700bc
:100b20007e003700960037009a003700a700370094
:100b3000b5003700b9003700d6003700e8003700ad
:100b4000ec003700f5003700f900370003013700eb
:100b50000a013700100137001e00900010007800d5
:100b6000e10f5000040032001e00900010007800d9
:100b7000e20f500041013a0010002000d0438800ed
:100b80005d0137000602a800d04380000000e800a5
:100b9000d043880058013700c0438000e10f500067
:100ba00038013a007828ef00d04380000000e800c8
:100bb000d04388001e00900010009000300090008c
:100bc00000004000101088004b013700c043800037
:100bd000e10f50002d013a007828ef00411080000d
:100be00000002800008060000000e00009003200e2
:100bf000e0438000e20f500003003c002001200091
:100c0000d04388003c01370000012000d043880019
:100c1000390137007c28ef001e0090001000900082
:100c20002000900010108800d04380000080e80071
:100c3000d043880030013700c0438000e10f5000ee
:100c400014013a007828ef004110800000002800cd
:100c5000008060000000e00003003200000120007e
:100c6000d043880024013700d04380000000e80012
:100c7000d043880020013700c0438000e10f5000be
:100c800006013a007828ef0041108000000028009b
:100c9000008060000000e00003003200000120003e
:100ca000d0438800140137001e0090001000780027
:100cb000e10f500003003a00d04380000000e8003c
:100cc000d04388001e00900010007800e20f500012
:100cd000f4003a0080002000d0438800060137006d
:100ce0001e0090001000900090007800f0438000fb
:100cf00000004000008040001000780010108800c4
:100d0000d04380000000e800d0438800f04380001a
:100d10000000e800f0438800f7003700c04380007f
:100d2000e10f5000e1003a007828ef00d043800046
:100d30000000e900d0438800411080000000280036
:100d4000008060000000e00003003200000120008d
:100d5000d0438800e8003700f0438000800078002e
:100d60001e0090001000900010009000808f500036
:100d7000d0003a00e0002000d0438800de003700b9
:100d80000622a800d04380000000e800d04388007d
:100d9000d9003700c0438000e10f5000c7003a007f
:100da0007828ef00d04380000000e800d04388009e
:100db0001e009000100090003000900000004000e5
:100dc0000000e80010108800cb003700c04380000e
:100dd000e10f5000bb003a007828ef00d0438000bc
:100de0000000e800d0438800411080000000280087
:100df000008060000000e000b4003200000120002c
:100e0000d0438800bc0037000662a800d0438000b1
:100e10000000e800d0438800b7003700c0438000de
:100e2000e10f5000ab003a007828ef00d04380007b
:100e30000000e800d04388001e00900010009000e1
:100e400090007800f04380000000400000804000e7
:100e50000110800001087800f04380000000e800e5
:100e6000f0438800f0438000800078001e0090006e
:100e70001000900010009000808f500002003a0097
:100e800006a2a8000100370006a2a9000682a80059
:100e900099003700c0438000e10f50008f003a00f6
:100ea0007828ef00f0438000800078001e0090005a
:100eb0001000900010009000808f500004003a0055
:100ec000d04380000000e800d04388008a0037004b
:100ed000d04380000080e900d043880086003700be
:100ee0000642a800d04380000000e800d0438800fc
:100ef00081003700c0438000e10f500079003a00c4
:100f00007828ef007a28ef007e28ef001e0090007e
:100f10008000eb0001087800770037000642a80047
:100f2000d04380000000e800d04388007200370002
:100f3000c0438000e10f50006c003a007828ef00b9
:100f40007a28ef007c28ef007e28ef001e0090003a
:100f50008080eb0001087800670037000642a80097
:100f6000d04380000000e800d0438800e0438000c8
:100f70000000e800e04388005f003700c0438000c5
:100f8000e10f50005b003a007828ef007a28ef006c
:100f90007e28ef00580037000642a800000000003d
:100fa00030048000620060000000e000fcff3200be
:100fb0000000000030048000620060000000e000db
:100fc000fcff3a0010002000000f780018003700e6
:100fd0000622a800000000003004800062006000cb
:100fe0000000e000fcff3200000000003004800040
:100ff000620060000000e000fcff3a00000a2000f0
:101000001010880000000000411080000000240043
:10101000008060000000e000fbff3a00401080000c
:101020004f00de00004078000080fb00000f7800d9
:101030001e0078000000e000e5ff3a000642a8002c
:101040000000000030048000620060000000e0004a
:10105000fcff3200000000003004800062006000ed
:101060000000e000fcff3a007828ef00e0002000dc
:10107000d0438800000000001f003700000000007f
:101080001d003700000000001b00370000000000ba
:1010900019003700000000001700370000000000b2
:1010a00015003700000000001300370000000000aa
:1010b00011003700000000000f00370000000000a2
:1010c0000d003700000000000b003700000000009a
:1010d0000900370000000000070037000000000092
:1010e000050037000000000003003700000000008a
:1010f00001003700000000000080fa000000060038
:10110000801f78000000fa00b011800020168800cf
:1011100087c0a9000080fa004f0078000040060058
:101120000000fa0087e0a9000080fa0000400600f5
:101130000000fa0031e2a90031a2a9003182a90021
:101140003162a900801180000080a1000090a10000
:101150008011880030e2a90030c2a90030a2a900a5
:101160003062a900801180000010a1000020a100c1
:10117000801188003002a90040012000c0118800c1
:1011800033e2a90033c2a90033a2a9003362a90047
:101190003342a9003322a9003302a9009011800034
:1011a0000060a1000070a1009011880032a2a90087
:1011b0003282a9003262a9003242a9003222a9007b
:1011c0003202a900004024009005880087e0a900b1
:1011d00097e0a80087c0a90097c0a90031e2a80045
:1011e0003342a8000080fa00000006000200fa0066
:1011f000004f78001e80fb00a01188000080fa00dc
:10120000000006000400fa00100798009e009000fd
:10121000010f78008011800066006000e60f50002a
:101220001f003a000d0037000000000091118000ff
:1012300000202000008060000000e000fbff3a007a
:101240001e009000104078000080fb00a011880074
:101250001e0090000000e800100798001e0090009b
:10126000104078000004e000efff3a001100370062
:10127000000000009111800000202000008060002c
:101280000000e000fbff3a001e00780010407800ec
:101290000000fb00a01188001e0fe80001003700cd
:1012a000000000001e007800104078000004e000fc
:1012b000efff3a000080fa00000006000200fa008a
:1012c000000f78008011800066006000e60f50007b
:1012d00003003a009e007800a11188000300370047
:1012e000f00f20001e006000a01188000080fa00ae
:1012f000000006000000fa00901180000040780015
:10130000614060000080fa00000006000000fa0062
:101310008011800066006000e60f500002003a0075
:10132000b011800003003700b1118000f00f2000e1
:10133000008060000080fa00000006000a00fa0049
:10134000e20f500020003e00f0588000e10f5000f6
:1013500006003200802320004523200023232000a4
:10136000042320000000e00004003a008022200056
:10137000452220002322200004222000060028000d
:101380001403630003003a000608780000002800f8
:10139000140a700013a8a30001003a0013a0a000d3
:1013a00002007800050037001388a300feff32001a
:1013b0003102fb00840a78000000e9000000e00030
:1013c000f9ff3a000800370033002000b3bf9f0048
:1013d000c0bf9f00d1bf9f00e2bf9f006a8057003f
:1013e0007e0b07006fb99700020078000080fa00ba
:1013f0000000060003f0a200889fbe008a9fbe0086
:101400008c1f78005f010700660133006450e10023
:101410004f0032006420e1005200320003826c0071
:1014200007003b000905d0000306d000820f5400de
:101430000c065d00020039000200320089017800cc
:10144000030678008582550004003d000003fd007e
:101450008103fd008502ea008b854200840f720043
:1014600002003b0060001000e08018006011b8002e
:101470000005eb007a28e1000a0039000600780038
:10148000c75ddd00f707b200878075002d003700cb
:10149000828171000a017800610560008180d100bd
:1014a0000080d3008502e900f9ff3b0006044000fc
:1014b0008784480002003b0060041400e0841c00a4
:1014c0000988a300070032008a81710082817100bf
:1014d000610164008904d1000884d3008b05e80011
:1014e000170037000978a30013003a000b00e00052
:1014f000130034008b05e9000804440089844c0083
:101500000a4474000978a3000d003a000b00e000c3
:10151000070034008b05e9000804440089844c006e
:1015200001003a000b0020000978a300f7ff320009
:101530000001eb0002003700828171000a0178008f
:10154000d50007000cf0a70001f0a0001e01370035
:101550006420e10002003a00838f6c001e0133001a
:101560000801be000200be0017013700889fbe00c0
:101570008a9fbe008c9fbe000004be00ec000700e6
:101580000800be00890678006420e10008003900e8
:10159000040032000160a000120220000244880012
:1015a0005300370091fc2300b0fd20004e003700af
:1015b0000006eb0009f0a10003f823000200200060
:1015c0000800be00900007000600340001f8230068
:1015d000000020000801be00490007000004be0012
:1015e0002c0020000800be0093e82300320a2300ec
:1015f00085000700120034000801be00d1fd230061
:10160000703d2b007cff07000005be00b3f32300f4
:10161000f27a26000800be00f200070003f823005b
:101620000200200073ff07000801be0072ff0700e0
:101630000a01be00320007000004be000c06e800ec
:101640000800be0001f0a100020020000398230062
:101650006d0007000800be00160035000801be003e
:10166000e00007000005be0032cd2c0043fb230044
:1016700061ff0700809fbe001269280003d52b0080
:101680000a00be00d7000700620f210013ef2b00f5
:1016900059ff07000a01be00d20007004f01be003b
:1016a000170007000801be00ce0007000801be00b9
:1016b00051ff07000c00e0000b0032000c10a700e7
:1016c00001f0a200b2fd200093fc23006260e10063
:1016d0000400320022a9200063f023000c10a700b0
:1016e00063f8230044ff07000df0a70001f0a200fb
:1016f0004f06be004f05be004f04be0000000600ae
:10170000889fbe008a9fbe008c1f78009d00070046
:10171000a400330003866c006450e1002e00320008
:101720006420e100330032006150e1002f003200fc
:101730006120e1003100320085855500eb07b000e3
:1017400009002000080420000500370008044400b8
:1017500089844c000a0031000603430087834b0054
:101760000001530081815b00f8ff33000203be00db
:101770000800a0000804440089844c00f6ff3900ea
:10178000c639dd0083017300010032001300200020
:101790008904d1000884d3000998a3000500320011
:1017a0000800a7000300a0008904d1000884d3002a
:1017b0008b05e8008904d1000884d3000001eb0008
:1017c0000281d2003400070001f0a1000cf0a70054
:1017d00001f0a0007c0037006420e1007e003200b0
:1017e0000801be000200be00f7ff37006120e100e3
:1017f000790032006000b800f3ff370000002000dd
:1018000001f82700f0ff37001400200057023700ce
:10181000f4ff2f00550237000001be00440007000e
:101820000470a70003f0a10003f8a30013003a001e
:101830006509b10010003200090035006928e10097
:1018400002003500010028000000050000004000f3
:10185000818048008502e900fcff3a000000060094
:10186000f88f4200050035008100d1000080d300d0
:101870008502e800fcff3a00000006008000eb0053
:10188000000005004f89de008201780073023700f6
:101890006011b8008102370081002000618055008e
:1018a0000b003d000b00200061fe2f000100e10055
:1018b0001d00340082817100610164008904d1003f
:1018c0000884d3000000e800faff3a00710020000d
:1018d0006100640003007000020060000900320033
:1018e00061044400e0844c000988a5000500320032
:1018f0008b05e8006808e10002003a008904d10085
:101900000884d300f20f20000258e10005003d00da
:10191000c75ddd00f907b200898075000800780016
:10192000000006000bf827008b007800000005007f
:10193000c70ade00f107b200f50fb200080032005e
:10194000e1cf4200020032000170a0002400050037
:10195000810f7000010032000408050044000500fa
:10196000810f700002003a00140005008502e900b2
:101970000000400081c04800fcff3b000170a00057
:10198000240005000004be00e9ff07000003be00bc
:101990000405be000200be00e5ff0700844f75008d
:1019a000000006000200be006450e10005003600a1
:1019b0006420e100020036000968a30001003a003b
:1019c0000800be000160a0004f0678004f05be0071
:1019d0004f04be0000000600f0ff2f00f1ff2700bb
:1019e000f9ff3700889fbe008a9fbe008c1f7800d9
:1019f000e4ff0700ebff330003866c006450e10056
:101a0000240032006420e100270032006150e10030
:101a1000220032006120e100210032008b8542006b
:101a2000eb07b1000134b800003ab80008044200e6
:101a300089844a00013ab8000030b800888040002c
:101a400009014a0004003300000040008180480082
:101a5000020149008b05e900c909dd00830170001e
:101a60000100320013002000c814de004814dd001d
:101a70004709de001200b200c808de0008847000ca
:101a800085ff070001f0a1000cf0a70001f0a00005
:101a9000cdff37006120e100cfff32000801be001a
:101aa0000200be00f7ff37006150e100fcff3a0082
:101ab000c9ff37000c00fa00889fbe008a9fbe0055
:101ac0008c9fbe00afff07000206be0084057800b1
:101ad0000200be00020020007d01070005003a0060
:101ae0008b02b300120020007901070001003a00c8
:101af000f8856d000c01be00c60007000800be009e
:101b00009b0032000b08a3009e003a000df0a700d6
:101b10000be0a00009f0a7000bf0a00009f0a10065
:101b20000801be00bb0007000bf0a60095003200c4
:101b300001003c000bd0a0008acf7500b20033003a
:101b40006000b8006250e10099003900a1003e0039
:101b50000b28a300a2003a000bf8a30006003200f5
:101b60000b58a300a70032000801be00a90007001f
:101b70000800be00940032000800be00e500070027
:101b80000004be00050578000bf0a7000b30a6008e
:101b90000bf0a1005b079800324f200053f32300a5
:101ba00019ff070005003d000800be0012002000dc
:101bb000e90107000004be000a05e9004a07980091
:101bc0006150b9002fff0700008fbe000c01be005e
:101bd00084ff070080010700300798000100e00043
:101be00002003d0060001000e0801800f2ff2700b6
:101bf000820f5000e08f580064003e000c00be00d1
:101c00007501070020079800f2072000820f50009e
:101c1000e08f580005003c0012f82f00f3ff2f0062
:101c2000820f5000838f580009003d000a00e00039
:101c30000300320001003c000201ea0002057800c6
:101c40006000b800200798003a0798001900370094
:101c50003e0090006100b9000aff0700809fbe00af
:101c60000c00be004109dd004811de007208b10021
:101c7000170107000005be001e01be0059ff070046
:101c80004f01be00dbfd0700809fbe000c00be00c0
:101c90000a01be00d7fd07001e01be0051ff07006c
:101ca0004f01be00d4fd07008221270013f323005b
:101cb0004cff07000005be002e0090006100b90037
:101cc000f0fe070001f0a2000c01be00cafd0700f3
:101cd0000006be000800be00c10107000c01be00e6
:101ce00040ff07000a01be00c3fd0700809fbe0041
:101cf0004a0007002e0590000af0a7000a05ea0036
:101d0000050037000800be000801be0035ff0700cf
:101d10000004be000c00be000801be000a00a700bf
:101d200030ff07000006be000a05d100f5ff3a00ab
:101d30005e01900002e0a600030037000001be0033
:101d4000360007006efe07000004be004f00be0014
:101d50007d0007000801be0022ff07003e01900041
:101d60007d010700de0590000bf0a70001f0a20046
:101d70004f06be004f05be004f04be000080fa00b3
:101d80000000060025000700f9ff370027000700c4
:101d90006000b8000bd0a7000bc0a0000be0a700ac
:101da0000bc0a2000bc0a70001f82700f0ff37000e
:101db0000df8a300020032001e0007001900070002
:101dc0000bf8a300eaff32000b30a70001f0a200dd
:101dd000e7ff37000df8a300f9ff3a00f7ff3700df
:101de0000801be000b000700e6ff320001003c00c6
:101df0000df0a2006000b8000df0a7000900070078
:101e0000dbff37000b000700f1ff2700f0ff2f007a
:101e1000d7ff3700010007007bfe370001f82300e1
:101e20000000050001f82700000005002002200046
:101e30000100370010022000004488000000060066
:101e4000889fbe008a9fbe008c1f78000004be00e1
:101e5000b7fe07000478a30026003a006120e100e5
:101e60002500320009f8a30025003a006420e100b3
:101e700021003200f507b1000508a300020032007e
:101e800000004000818048006044b800031020003a
:101e90000200200000004000818048000805440046
:101ea00089854c000a0541008b8549000a055000d0
:101eb0008b855800030033000a00be000204740042
:101ec000838474008301d1000281d300830f7100e9
:101ed000f0ff3a008904d1000884d3006001490072
:101ee00082017800c1adde00fb07b0006afe07008a
:101ef000b5fe37000960a0000800be00b2fe370042
:101f00001202200002448800f0ff2f00f1ff27009a
:101f1000adfe37000003be0085fe07006220e10031
:101f2000020032000600be0005000500e507b10012
:101f3000f107b20004f023008480700007f0a700ce
:101f400001f0a00024000500889fbe008a9fbe000b
:101f50008c9fbe000004be0075fe07000800be0096
:101f60006420e10048003e00550032007221270045
:101f7000132b240026fe070047003c000800be008b
:101f8000c2ec2800e32c2c001ffe070047003500a0
:101f90000800be0001f0a100020020000338230069
:101fa00019fe0700430035000800be00b2a32a0056
:101fb00083fb23008bfe07000200200003f02300b8
:101fc00001f0a70003f0a0000bfd0700820007004e
:101fd0000005be002bfe070001f0a2000006be00b7
:101fe0000200280013f323007efe07000801be0054
:101ff00001fd0700809fbe000c00be0032082800d3
:10200000e3952b0077fe07004f01be00fafc0700a6
:102010000006be000001be0072fe0700809fbe00e9
:102020004241250083b823006efe07000200200015
:1020300003e82300f0fc07000c01be0069fe070066
:102040000006be004f00be00f2f92b00c3d42300ef
:1020500064fe07000200200003f02300e6fc0700f6
:102060000c01be00e3fc07000001be000c00be0036
:10207000a3fd07000200200003f02300defc0700a0
:1020800061014500b40007004f06be004f05be00c9
:102090004f04be000000060001f8270000002000e9
:1020a0002202200002448800f7ff37006000b800d9
:1020b000fbff370001f8230000002000f2ff37008b
:1020c00009f8a300f0ff32006000b800eeff37000f
:1020d000889fbe008a9fbe000003be0014fe07005a
:1020e0008505780082815200020020006220e10014
:1020f00004003a00f307b100040035007718e1004e
:10210000040035000600be00140037006000b8006f
:102110000f003700f50f2000faff2f008502d100d5
:102120000a85d3008301e900fcff3b008184620043
:1021300000046500890f7400f2ff32008582ea0016
:102140000a85ea008184620000046500d2fd070070
:1021500007f0a70001f0a0000081eb000200e00002
:102160004f05be004f04be0000000600889fbe0061
:102170008a9fbe00841f780002fe07004f0078008f
:1021800011003300f0ff2f00838f6c0006003b002e
:10219000040565000a00a7000800370009f0a60042
:1021a0001000200008003700820f5400838f5c006d
:1021b000030039001000200001003e000000200054
:1021c00009f0a7000000ea004f05be004f04be0062
:1021d0000000e000000006000001be00d4fd070082
:1021e0000470a70003f0a1006509b10016003200d9
:1021f0000d0035006828e10006003500f0ff2f00d3
:10220000f1ff27000300e00013003b00010028005d
:102210000000050000004000818048008502e900c0
:10222000fcff3a0008003700f88f420002003c0033
:102230008000eb00000005008100d1000080d30089
:102240008502e800fcff3a000300e00002003b00ca
:1022500060001000e080180000000600881f780071
:10226000030478000300e00007003d006000100058
:10227000e080180060011900e081190002003b00b5
:1022800001f02d00030037000400070008f0a7004c
:1022900001f0a0004f04780000000600889fbe00f7
:1022a0008a9fbe00008270000402710004827100e7
:1022b000260032000004be000200be006011b8001b
:1022c0006b092000950220000182cf000a0039002e
:1022d0000541b1000082cf00070039000541b1007f
:1022e0000982cf00040039000541b1000882cf0007
:1022f000010039000541b1000542520012003200d0
:102300000a003b0082817100610164008100d100fc
:102310000080d3008984d3000884d3008b05e800b3
:102320000442e800f7ff3a000700370008044400c1
:1023300089844c0000004800818048008b05e9003a
:102340000442e900f9ff3a0053fd07004f05be00c3
:102350004f04be00000006000003be0074fd07002d
:102360006220e100020032000600be00000006000c
:1023700085024100e30f20000328e10005003c0036
:10238000a3fe2f000328e10007003d000500200008
:1023900001003700f50f20002002200000448800d3
:1023a0006000b8000800370013002000838152004d
:1023b00005003d008100d1000080d3008301e800ca
:1023c000fcff3a0005002000c72add00f107b2003b
:1023d0008580700007f0a70001f0a0000000060053
:1023e000889fbe008a9fbe008c9fbe00c9fe07006a
:1023f000850478000005be006420e10049003e002d
:102400006220e10003003200090035000bf8a30050
:10241000440032000bf8a300080032001002200034
:1024200000448800f0ff2f00f1ff27003d00370037
:1024300001f82f00000020003a0037003d0007009f
:10244000ecfb07000006be000a00be00324f200071
:1024500053f32300eefc0700060034000c00be001e
:1024600034000700e3fb07000006be000a00be00c0
:10247000020037008904e9000c00be002d000700af
:1024800058fd07002b000700dbfb07000001be0022
:102490000c00be009afc07000005be000001be0053
:1024a00050fd07000006be00a2f32300430d2c00e0
:1024b000d1fb0700809fbe000c00be00d2e32700c6
:1024c000d3f02b0047fd07004f01be008cfc070036
:1024d0000006be000a01be0042fd07000a01be0060
:1024e000c5fb07000006be006148b900e5fc070017
:1024f0000005be0032082800e3952b0039fd0700d7
:102500000c01be00bcfb07000006be000a00be00b6
:102510000200280013f3230032fd07000c01be0067
:10252000b5fb07004f06be004f05be004f04be00be
:102530000000060003f0230002000500889fbe0093
:102540000004be00050037000000fb008900780091
:1025500019000700e10f4000040032003840780005
:102560000004e000f8ff3a000000eb004f04be005a
:1025700000000600881f780041af2000efff070031
:102580000004780041af2000a00020000a000700ee
:10259000080078004f047800000006000000fa00f0
:1025a00068815700cfb8970040af20000d010700a9
:1025b0000080fa0000000600889fbe000104780039
:1025c000b80090008084eb000118a3003a003200ac
:1025d000180190000198a30002003a000200e000f8
:1025e00035003a000190a000310498008004780082
:1025f000f90fb2000200e00002003a00280090004b
:10260000000c7800ea8f540005003a000178a3001e
:1026100003003a0088007800d0002000e6ff0700a1
:1026200018009000d8009000810f50000b0032007d
:102630000000e800100498001800780009487800ad
:10264000000ce80011c0b30080b120000148780000
:10265000ea8f540018003a0005003700880078001f
:10266000094078009e0607008004780012003700b9
:10267000380090000088a3000f003200180190007d
:10268000a8009000480090002cfb070098009000e4
:10269000810f500004003200380090000003b300a6
:1026a000300498008084eb000000eb0010049800d8
:1026b00028009000000c7800090078004f04be004c
:1026c000000006000800fa00889fbe008a9fbe0036
:1026d0000084fb00d1c6b300814f500034003600a7
:1026e0004b062000110009000b84d80081057800fa
:1026f000720040004300dd00299320000080440068
:102700006022b8000600200007fe23005001be0032
:102710004000be00760807000002be000203be00b3
:1027200084bf9f0095bf9f00a6bf9f00b7bf9f00bb
:10273000aa002000110009008a85d80080057800d1
:10274000e9854500c35ddd008b8544003b02be008a
:102750002b03be000fb897009fb897002fb99700c2
:10276000bfb99700620807000002be000203be0066
:1027700084bf9f0095bf9f00a6bf9f00b7bf9f006b
:10278000110009000a84d800010478004344dd00e8
:10279000888444003902be002903be000fb89700a8
:1027a0009fb897002fb99700bfb997001d00370059
:1027b000ea4f500013003600aa0020001100090063
:1027c0000a84d80001057800690440004344dd0014
:1027d00029932000088444006022b80006002000ed
:1027e00007fe23003800be002801be004008070095
:1027f0004355dd008a8444003902be002903be002f
:10280000080037004344dd00209320000804400006
:102810006022b8000600200007fe23003800be003a
:102820002801be00320807004f05be004f04be005d
:102830000080fa00000006000800fa00889fbe0031
:102840008a9fbe00d1c6b3000004e00023003d0013
:102850000040ea000004fb00814f50000a003400f1
:1028600042062000110009000204d800a90020003f
:10287000110009008900d800e9004000c308dd000c
:102880002a93200021003700ea4f50001000340046
:10289000a2002000110009000204d8000101780004
:1028a000690040004300dd002193200000804000cb
:1028b0004311dd00828040003102be002103be00d2
:1028c0005001be004000be00090807003800370074
:1028d0004344dd0020932000320037000004fb0059
:1028e000814f5000230034004206200011000900ef
:1028f0000204d800a9002000110009008900d800b6
:10290000e9004000c308dd002a882000810045005e
:102910003102be002103be008b0920008a854500dc
:102920003b00be002b01be00f10707000002be0005
:102930000203be0084bf9f0095bf9f00a6bf9f00fb
:10294000b7bf9f00110009000904d80001047800f6
:102950004344dd00080545003a02be002a03be00dc
:102960000fb897009fb897002fb99700bfb997008d
:10297000d5ff3700ea4f500008003400a2002000c5
:10298000110009000204d80001017800690040002c
:102990004300dd0021882000c4ff37004344dd00f0
:1029a00020882000080440003800be002801be0036
:1029b0004f05be004f04be000080fa000000060074
:1029c000d0019000028151004240a9000300340070
:1029d00010017800014978000208e8000100780041
:1029e000000006002f04b000889fbe008a9fbe0032
:1029f0008c9fbe008e1f780000067800e19f9f002c
:102a000082af9f006000b8006011b80080a79f00ef
:102a100091a79f00a2a79f00b3a79f008006eb008d
:102a2000a3053700ef9897008100e800e19f9f0021
:102a300051c2b300814f500003003a006f999700d4
:102a40000007eb0011003700bc0090000000fb0005
:102a50000168a300070032000d01780080007800b3
:102a60000c007800d6ff07000000e00005003a00e7
:102a70008f0537008c007800cffe0700e10f400083
:102a80008b0532008d06e8008905370002007800ca
:102a9000b2407800d3c2b30083cf50000c003200a4
:102aa00007003c00edc1510083cf50000a00320006
:102ab000ebc1410083cf50000d003a000800370001
:102ac00003c3b30083cf500009003a00060037006b
:102ad0000e30a000edff37000e00a000ebff370026
:102ae0000e10a000e9ff37000e20a000e7ff37001e
:102af0000e18a300010032000e00a1000e38a30042
:102b0000010032000e20a1000101fb000203b10010
:102b1000e90f51000e003e00800078000001eb003c
:102b200092b79f006a11b9003100fb000003b100a9
:102b300002014000010078009101fb000303b10095
:102b4000e98f5100f7ff360092b79f000a00370067
:102b50008001eb0093b79f00a2c2b30082cf500068
:102b600005003a000faa9700c402780084af9f00c6
:102b700095b79f000000e800e1c2b30090cf1000bd
:102b800017003a000ee0a000e4c05000d0cf1000c3
:102b900003003200800078008001eb00090037005c
:102ba0008fab9700c700780087af9f00d1af9f0021
:102bb0000000e800000178000d0037006a1ab90033
:102bc00084014100010078003101fb000203b100e3
:102bd000e90f5100f9ff3600d3af9f00f5ff370032
:102be0000ec0a0000001eb00d2af9f00f1ff370044
:102bf000820178003340780003017800c1c6b30039
:102c0000814f50002b003200e39f9f0014003c00d6
:102c1000e8c05000814f50002400320009003c0001
:102c2000ecc05000814f50002e003200ebc040003d
:102c3000814f5000980032000004e000210532006e
:102c4000b400370061c6b300814f50001f0032004e
:102c5000e3c04000814f5000ae003a00130037003f
:102c600031c7b300814f50002200320007003c0002
:102c7000e4c05000814f5000170032008140e8004e
:102c8000814f5000a3003a001600370051c7b3002f
:102c9000814f5000a4003200e3c04000814f50003b
:102ca0009c003a00a0779f0010003700a0779f009b
:102cb0009f003700000120000e48a30001003200f1
:102cc000000028000e077000c9ff3700a0779f00a2
:102cd0000ea0a00096003700a0779f000e60a00015
:102ce00093003700a0779f000e50a0000e70a00048
:102cf0008f003700a0779f008fa9970043007800ce
:102d000083af9f00000478000000e00001003a005b
:102d100048a02000880078000000eb000100370088
:102d20000000e800614178000204e000fcff3a0086
:102d3000800478005faa97000400e00003003200de
:102d4000890f520001003100840478008001eb00fb
:102d50009fb29700898f520001003600898152008e
:102d600068036700d6af9f002c003a000307780085
:102d7000110037003c0090000068a30007003200fb
:102d80000d017800010220000c0078000cff070004
:102d90000000e00006003a00060037008c007800d2
:102da0000002200004fe0700e10f40000100320095
:102db0008d06e8000e07e9000e00e000edff3a0086
:102dc0008081eb00150037003c0090000068a300f4
:102dd0000900320008007800b000fb000004780011
:102de0000d0178000c007800f5fe07000000e000ff
:102df00008003a000a003700880078003100fb0024
:102e0000010478008c007800ebfd0700e10f400022
:102e1000030032008d06e800010037000307780048
:102e2000090078008004e9000000e000e6ff3a00b5
:102e30008e017800dfab97000700e0009c043200b1
:102e400003077800110037003c0090000068a300e1
:102e5000070032000d017800010220000c0078000c
:102e6000d7fe07000000e00006003a000600370029
:102e70008c00780000022000cffd0700e10f400029
:102e8000010032008d06e8000e07e9000e00e000a8
:102e9000edff3a00860437008fa8970041007800c4
:102ea00081af9f006102b900612bb90094af9f0010
:102eb000a5af9f00b6af9f00c7af9f004822de00be
:102ec0004828dd0004027000a4779f000e48a3008c
:102ed000090032000404e00007003200e14f420024
:102ee00005003200b4779f00afd09700c1779f00f4
:102ef00029002000030037002fd19700b2779f00f0
:102f00001900200023fb2f008f8141000304e800fb
:102f100088ff3700a0779f0028fb2f000f04440094
:102f20001900200083ff3700a0779f000e0cb3002c
:102f30000070200000006700640232000ec8a30089
:102f40000200320064002000d4af9f000e48a300ae
:102f5000090032000faa97004401be004400be00e1
:102f600084af9f0090af9f00a1af9f00b2af9f00c2
:102f7000c3af9f000a0037008faa97004500be002c
:102f800085af9f00c20507000002be000203be001d
:102f900094af9f00a5af9f00b6af9f00c7af9f0043
:102fa0006022b8006033b8001fa89700afa8970050
:102fb0003fa99700cfa99700070507000000e00090
:102fc0000a003d001fa89700afa897003fa99700ef
:102fd000cfa9970003f0a20090af9f00a1af9f0080
:102fe000b2af9f00c3af9f003e00b3000000eb00f4
:102ff000b09f9f006022b8006033b8001fa8970000
:10300000afa897003fa99700cfa9970056050700e2
:103010000000e0003400320064fb2f000f02420089
:103020001fa89700afa897003fa99700cfa99700c6
:10303000120607003f9897000000e9006302b900fc
:10304000a2002000110009000202d800b09f9f00da
:103050000000e00002003d000000e900b09f9f007a
:103060003f9c97000840ea00f3fd07001faa970065
:10307000afaa97003fab9700cfab97001c060700a5
:103080000002be000203be0084a79f0095a79f0018
:10309000a6a79f00b7a79f006022b80006002000e7
:1030a00007ff2300cc0407000000e00002003d0001
:1030b0000804e9000b0037006022b8000600200079
:1030c000470224000fa097009fa097002fa1970010
:1030d000bfa19700c50407000000e0000200350012
:1030e0000804e800b89f9f00dfaa9700f88f5200fd
:1030f0000f003c000540780072fd07000002be0092
:103100000203be001fa89700afa897003fa9970031
:10311000cfa99700330407000002be000203be00df
:1031200094af9f00a5af9f00b6af9f00c7af9f00b1
:103130003f9c9700e90f540015003c006022b80046
:103140006033b8001fa89700afa897003fa9970069
:10315000cfa99700040507000000e000320032000c
:103160001fa89700afa897003fa99700cfa9970085
:1031700066050700e00f5000e08f5800e00f59008f
:10318000e08f590028003a00e10f54002600340077
:103190000400200005002e00b6e0220017012400e4
:1031a0000fa097009fa097002fa19700bfa19700a5
:1031b000890407000000e00002003d007304540091
:1031c0000100370072045400b89f9f006f70970091
:1031d00099fd07000002be000203be0084a79f0005
:1031e00095a79f00a6a79f00b7a79f001fa89700bd
:1031f000afa897003fa99700cfa9970080040700c8
:10320000420507000205be000004be006000b800d1
:103210006011b80090af9f00a1af9f00b2af9f00b8
:10322000c3af9f00170037001fa89700afa89700f3
:103230003fa99700cfa99700340507000205be00fb
:103240000004be00620507000002be000203be00cb
:103250001fa89700afa897003fa99700cfa9970094
:10326000180607000002be000203be0094af9f00d4
:10327000a5af9f00b6af9f00c7af9f000000eb0057
:10328000b09f9f0045a1200014c0b3000800370084
:103290003500be003501be000040e10001c8e1007c
:1032a00002d0e10003d8e100030039000442e80045
:1032b000f44f5200f6ff3a00a4779f003f98970022
:1032c0009fb29700008052005fab970086005000cd
:1032d0000400fb000080500090b79f000600e00053
:1032e000020032000000e90090b79f006300670011
:1032f000030032009fb397008703e90097b79f0050
:103300000e28a30050003200610167000e18a300d0
:103310000f0032003c0090000068a300060032005d
:10332000b10220000200e000010032008180e800cc
:103330000d0178000d003700b00220000200e0000f
:10334000010032000080e8008c0078000e00370099
:103350000200e000330032003c0090000068a3004f
:10336000070032000d017800010220000c007800f7
:1033700093fd07000000e00006003a002900370036
:103380008c007800000220008bfc0700e10f400059
:10339000240032008d06e800220037003c00900037
:1033a0000068a3000f0032000d0178000103200027
:1033b0000c007800f4b79f0085bf9f00d6b79f0030
:1033c000e7b79f007efd07007fb297008fba970096
:1033d0005fb39700efb397000000e0000e003a00e3
:1033e0000e0037008c00780000032000f4b79f0027
:1033f00085bf9f00d6b79f00e7b79f006efc070010
:103400007fb297008fba97005fb39700efb3970032
:10341000e10f4000010032008d06e8008904e90058
:10342000030037000802be000a03be009fb49700e5
:103430000900e000d9ff3c0099b79f000605be00d7
:103440000404be00670037000e38a3001e003a00d7
:10345000c8a79f00d9a79f00eaa79f00fba79f00ce
:103460009fb49700110037003c0090000068a30053
:10347000070032000d017800010220000c007800e6
:103480004ffd07000000e00006003a00060037008c
:103490008c0078000002200047fc0700e10f40008c
:1034a000010032008d06e8008904e9000900e0000f
:1034b000edff3c0099b79f004fa49700dfa4970051
:1034c0006fa59700ffa59700610167000e18a30084
:1034d0000e0032003c0090000068a300050032009e
:1034e000b10220000200e000250032008180e800e7
:1034f00023003700b00220000200e000010032008b
:103500000080e8008c007800320037000200e00004
:10351000340032003c0090000068a3000300320039
:103520000d01780001022000160037008c007800a1
:1035300000022000270037003c0190008100fb00c2
:10354000c0a020000268a30013003200c308dd0001
:10355000010040003002be002003be000800be0093
:103560000a01be0008060700a40020000500200094
:103570006033b8000b060700010320008080400084
:103580000d0178000c0078000dfd07000000e00040
:1035900013003a0013003700c308dd0001004000ab
:1035a0003002be002003be000800be000a01be00bb
:1035b000f5050700a4002000050020006033b800d6
:1035c000f805070002032000000141008c0078008c
:1035d00002007800f8fb0700e10f40000100320014
:1035e0008d06e8002f7097008040e900a1779f00ca
:1035f0000004e000d0ff3a00130037003c009000c8
:103600000068a300070032000d01780001032000cc
:103610000c007800eafc07000000e00006003a0019
:10362000060037008c00780000032000e2fb070052
:10363000e10f4000010032008d06e8003f9897003e
:103640000000e900b09f9f003f9897000000e00055
:10365000eaff3c00dfa89700f28f5000030034001f
:1036600020c1b300a0779f00020037002fd9970038
:10367000a2779f002f7097008000fb00dfa99700c2
:1036800081805100d1af9f000004e00010003200a3
:103690003c0090000068a300070032000d01780094
:1036a000e10220000c007800c5fc07000000e000eb
:1036b00006003a00060037008c007800e002200087
:1036c000bdfb0700e10f4000010032008d06e8005d
:1036d0002f70970058fc07000002be000203be00d6
:1036e0001fa89700afa897003fa99700cfa9970000
:1036f0007f04070005040700330037003c019000f9
:10370000c1a020000000fb000268a30013003200eb
:103710004300dd00008040003002be002003be00f8
:103720000800be000a01be0097050700a4002000a3
:10373000050020006033b8009a0507000003b000c0
:103740000d017800800078000c0078009cfc0700d8
:103750000000e00011003a00110037004300dd00d6
:10376000008040003002be002003be000800be0002
:103770000a01be0084050700a40020000500200007
:103780006033b800870507000003b0008c007800a4
:1037900089fb0700e10f4000010032008d06e800c0
:1037a0002f7297000400fb004300dd00c1a0200041
:1037b000008040003002be002003be000800be00b2
:1037c0000a01be00770507000205be000004be0026
:1037d000af7097000140e900a0779f000104e0006e
:1037e000c6ff3a0098af9f00a9af9f00baaf9f00f5
:1037f000cbaf9f00dfac9700110037003c0090007a
:103800000068a300070032000d01780001032000ca
:103810000c0078006afc07000000e00006003a0097
:10382000060037008c0078000003200062fb0700d0
:10383000e10f4000010032008d06e8008904e90034
:103840000900e000edff3a001fac9700afac970015
:103850003fad9700cfad97000e38a30014023200a1
:103860009fb097000100e00011023400d8af9f0024
:10387000e9af9f00faaf9f008bb79f0081047800eb
:103880003c0090000068a300070032000d017800a2
:10389000010220000c00780049fc07000000e00055
:1038a00006003a00060037008c0078000002200075
:1038b00041fb0700e10f4000010032008d06e800e7
:1038c0008904e900eeff3a00f90137000e007800a4
:1038d000000cb20021003a000e00e00005003d009f
:1038e0008faa97004505be004504be0085af9f0026
:1038f0000d0037000e48a300060032000fab970002
:103900004604be0086af9f004fcdde008a057800da
:10391000050037008fab97004704780087af9f0002
:10392000cfc4de00614db900e00f5400e08f5c00b1
:10393000e00f5d00e08f5d001b003d003e00b30026
:103940006000b8006011b800080450008984580075
:103950000a0559008b855900130037000e00e0005e
:1039600005003d000fa897004005be004004be00c2
:1039700080af9f000c0037000e48a3000500320006
:103980008fa897004104be006055b80081af9f002a
:10399000050037000fa997004204780082af9f000e
:1039a0008004eb006055b800dfa997000300e00039
:1039b00009003a0014002000d4af9f00e00f54002b
:1039c000e08f5c00e00f5d00e08f5d0002003200e0
:1039d0008002eb00d5af9f000e037800060cb2000a
:1039e00096af9f0000042000800f53002c0032008f
:1039f00003003c000600e000080032003c003700f5
:103a0000000820009fab9700808f53001000320009
:103a1000000c2000808f530035003a0045a12000a3
:103a200014c0b3003500be003501be000040e10007
:103a300001c8e10002d0e10003d8e1002b00390009
:103a40000442e800f44f5200f6ff3a002700370026
:103a500014c0b30000012000010020006011b80074
:103a60000040e10001c8e10002d0e10003d8e1001c
:103a70001e003900450020000000d0008180d200e7
:103a80000281d2008381d2008502e900faff3a0068
:103a90000442e800f04f5200f1ff3a0013003700f3
:103aa00014c0b30080002000010020006011b800a5
:103ab0000040e10001c8e10002d0e10003d8e100cc
:103ac0000a003900360020000000d0008180d200ba
:103ad0000281d2008381d2000603e900faff3a0096
:103ae0000442e800f54f5200f1ff3a00a4779f002e
:103af000af7397000700fb00dfa89700810f50000d
:103b000002003d00a1779f00040037005fa99700e5
:103b1000800f510001003d00d0af9f009fb1970082
:103b20000300e0000400320063006700020032007e
:103b30008301e90093b79f000ee8a300090032005b
:103b40001fb29700dfaa9700850f520003003400d0
:103b50000502520094b79f00020037000003eb00fb
:103b600096b79f00af7397000700fb008000eb0043
:103b7000c1a79f001fb19700800f510002003400c1
:103b800000005100c0a79f000e28a300440032008f
:103b9000610167000e18a3000f0032003c00900086
:103ba0000068a30006003200b10220000200e0001d
:103bb000010032008180e8000d0178000d0037001f
:103bc000b00220000200e000010032000080e800a6
:103bd0008c0078000e0037000200e0001000320078
:103be0003c0090000068a300070032000d0178003f
:103bf000010220000c00780071fb07000000e000cb
:103c000006003a00060037008c0078000002200011
:103c100069fa0700e10f4000010032008d06e8005c
:103c2000cfa197000300e0006200320098b79f0028
:103c3000a9b79f00bab79f00cbb79f008304780055
:103c40003c0090000068a300070032000d017800de
:103c5000010320000c00780059fb07000000e00081
:103c600006003a00060037008c00780000032000b0
:103c700051fa0700e10f4000010032008d06e80014
:103c80008904e900eeff3a00c9a79f001fb497001e
:103c9000afb497003fb59700cfb597004500370008
:103ca000cfa297000500e0001e0032000e38a300ee
:103cb0001c003a0098b79f00a9b79f00bab79f00b1
:103cc000cbb79f00850478003c0090000068a300fb
:103cd000070032000d017800010220000c0078007e
:103ce00037fb07000000e00006003a00060037003e
:103cf0008c007800000220002ffa0700e10f40003e
:103d0000010032008d06e8008904e900eeff3a0068
:103d1000c9a79f001fb49700afb497003fb59700a5
:103d2000cfb59700610167000e18a3000f003200a5
:103d30003c0090000068a30006003200b1022000a1
:103d40000200e000010032008180e8000d017800ef
:103d50000d003700b00220000200e0000100320038
:103d60000080e8008c0078000e0037000200e000c0
:103d7000100032003c0090000068a30007003200f1
:103d80000d017800010220000c0078000cfb0700f8
:103d90000000e00006003a00060037008c007800c2
:103da0000002200004fa0700e10f40000100320089
:103db0008d06e800dfa897000100e9004201dd0060
:103dc000d29f9f006301b90002027800c49f9f0048
:103dd0004300dd00c1a0200081004000f19f9f0052
:103de00098b79f00a9b79f00bab79f00cbb79f00b5
:103df00094003700dfa897008100e900d1af9f0051
:103e0000000420001fa99700800f510064003200b9
:103e100003003c000200e000080032006f003700a1
:103e2000000820009fa99700808f510048003200b1
:103e3000000c2000808f510068003a000e00e00066
:103e40001a003d007f9a97003404be002405be008e
:103e50000802be000a03be001fb09700afb0970073
:103e60003fb19700cfb19700c7030700a0779f002d
:103e70000000fb00cf80de006109b9000802be002f
:103e80000a03be00290407001fb29700afb29700d3
:103e90003fb39700cfb397000002520081825a00cf
:103ea00002035b0083835b00170037000e48a3000a
:103eb0001a0032001fb29700afb297007f9b9700a5
:103ec0003604be002605be000801be000400be0088
:103ed000f4b79f0085bf9f00fc020700a0779f00fa
:103ee0000000fb00cf80de000801be0007030700d2
:103ef0007fb297008fba97000000520081805a006d
:103f00000002be006033b80094b79f00a5b79f00c1
:103f1000b6b79f00c7b79f0009003700ff9a970008
:103f2000150178001fb39700110009000283d80023
:103f3000a2002000110009000280d800a1779f0094
:103f4000af7397000743b000a7779f0023003700a7
:103f5000309f20000e58a30001003200209e200058
:103f60001fb29700afb297003fb39700cfb397004f
:103f7000df9897008100e900050033008703d10036
:103f80000683d3008582d3000482d300f9ff370073
:103f90006f02620060427a00a4779f000f00370032
:103fa0001fb09700afb097003fb19700cfb1970017
:103fb0004f9a97000402e900050033008301d10005
:103fc0000281d3008180d3000080d300f9ff370045
:103fd000674060000043b000a0779f00bc009000e5
:103fe000af7297000500fb000168a30007003200d4
:103ff0000d017800800078000c00780070fa07004e
:104000000000e00005003a00050037008c00780051
:1040100069f90700e10f4000010032008d06e80059
:104020005f9b970064035300d69f9f00cf9b970030
:10403000e3835300c79f9f007f989700680050005c
:10404000f09f9f00dfa897000100e00069ff3a00a1
:104050000e38a300160032004fa197000200e000c6
:1040600013003400020778003c0090000068a300b1
:10407000070032000d017800010220000c007800da
:104080004ffa07000000e00006003a000600370083
:104090008c0078000002200047f90700e10f400083
:1040a000010032008d06e8000e07e900eeff3a003d
:1040b000ef99970013407800a0779f000004e0007c
:1040c00058fa3a000d0078004f0778004f06be00fe
:1040d0004f05be004f04be002f04b10000000600d3
:1040e0000200fa00889fbe00a0ff9f000104780034
:1040f000380090000068a30033003a00e20060003e
:1041000005003a000003b300300498001104980041
:104110000080eb002e003700d80490000900e0007a
:1041200006003a0012002000e68057004800900088
:1041300082f407001904980023003700a8009000bb
:104140000100e00008003a00b1b12000210498000d
:10415000010c7800210020005104980011049800ff
:104160000030a0003004980018019000a8009000d2
:104170004800900071f40700280090008080eb0058
:1041800011049800aff8970001487800000ce8008f
:104190002ff89700ea4f50000b003a0038009000cb
:1041a0000088a3000800320018019000a8009000c9
:1041b0004800900061f407000000eb001004980034
:1041c000a8009000010c7800aff897000100fb00f8
:1041d0004f04be000080fa000000060000c0da00b4
:1041e000000006002800fa00889fbe008a9fbe00db
:1041f0008c9fbe0007067800878669000c003b0094
:10420000030478008704780008f0a10009f0a100f9
:10421000840f5000858f5800860f5900890f5c006d
:10422000030033000cf0a20001003a000cf0a100e2
:10423000fe0007006400e1005f00320078014700e3
:104240006408e100610032006c014700748557008a
:104250003200be001201be003a04be001a05be00c4
:104260001e039000be0a90008503530006003d0027
:104270000004fd008104fd000205fd008305fd0032
:104280008703ea00050378000df8a300040032005c
:1042900060041400e0841c0060051d00e0851d0022
:1042a0006022b8007d0320000d38e1008006eb009d
:1042b0000b0039004433dd00f300b20083017300ca
:1042c00039003700848272000d027800e106640034
:1042d0008b85d1000a85d3008984d3000884d3005c
:1042e0008703e900f7ff3b00080040008980480091
:1042f0000a0149008b81490004003b006000100066
:10430000e080180060011900e08119000358a30043
:10431000090032008d8272008482720061026000a6
:104320008301d1000281d3008180d3000080d300bb
:104330000603e8001b0037000348a30017003a00fb
:104340000600e000170034000603e9000d00a3009a
:104350000000480081804800020149008381490033
:104360000348a3000f003a000600e00009003400f3
:104370000603e90000004000818048000201490076
:104380008381490001003a000003eb000348a300c9
:10439000f5ff32006022b80002003700848272000c
:1043a000618266007500070003f0a1000cf0a70011
:1043b00003f0a000b1003700640147006408e10089
:1043c00002003a000df8a300a9003a003200be0036
:1043d0001201be00a90037008f1fd100fc020700a8
:1043e0008f87e9000000e00000000600809feb00de
:1043f000f70207008f87e9000000e00000000600d8
:104400002800fa00889fbe008a9fbe008c9fbe00d5
:1044100003866b00850007006400e1004400320061
:104420006408e1004a0032006100e1004600320009
:104430006108e10049003200ec0647006000b80066
:104440003d02be003d03be00f48657006011b80077
:104450003d04be003d05be007d0320000b0037007b
:104460000000a0008d06e9001300320004024200a3
:1044700085824a0006034b0087834b000000400002
:1044800081804800020149008381490008025200ee
:1044900089825a000a035b008b835b00f0ff3b00bc
:1044a0000802420089824a000a034b008b834b00ba
:1044b0008d06e900edff3a00848272008682720068
:1044c000f707b20087827200010032001500200059
:1044d0001e0490003e0b900006035400e63fb0001f
:1044e0000368a300070032000000a7000500a00039
:1044f0008301d1000281d3008180d3000080d300ea
:104500000603e8008301d1000281d3008180d3003b
:104510000080d3000002eb000482d20017000700e5
:1045200003f0a1000cf0a70003f0a0005300370037
:10453000640247006408e1004d0032003400be0010
:104540003401be00f6ff37006108e1004800320088
:104550006011b8006000b800f1ff370003ff2700ca
:1045600002002000fbff3700801feb0098020700cd
:104570008f87e9000000e00000000600180020001e
:1045800057002000080453000d003d0006002000e5
:1045900097fc2f000740e1001e0034008482720067
:1045a000610260008301d1000281d3008180d300c9
:1045b0000080d3000804e800f8ff3a00470020001c
:1045c0006104600005047400040464000d003200fe
:1045d00061004000e080480060014900e08149003e
:1045e00003b8a500070032000603e8006538e100c3
:1045f00004003a008301d1000281d3008180d300fe
:104600000080d300f87f20000830e100030035006f
:10461000080378006000b8006011b8004433dd0082
:10462000f300b20083017300000006006804470035
:104630000294be000094be00fc0447008694be00b5
:104640008494be0009007800aa02070008007800e0
:10465000a802070099007800814f70000b003b0012
:104660000800be00830207004f00b10003003700be
:10467000f3ff2700f2ff2f006110b9004f06be00c4
:104680004f05be004f04be000080fa000000060087
:1046900081037800a6f407000001be006000b800a6
:1046a0000478a30013003a006220e10015003e00e8
:1046b0000d0039008301d1000281d3008180d30035
:1046c0008301d1000281d3008180d3008301d10016
:1046d0000281d3008180d3000538b000c42add00f8
:1046e000f300b2008381720007f0a70003f0a0007e
:1046f00000000600f3ff2700f2ff2f006110b90051
:10470000fbff370003ff2700f7ff37001400fa0014
:10471000889fbe008a9fbe008c9fbe000004be0022
:104720000205be00680047000a90be000890be0067
:10473000700207000070a7000bf0a1000bf8a300a7
:1047400020003a009e0990000e099000fe009000a3
:104750006e0090009e02900034432000848252003c
:10476000c6ff32000a003c00b4fc2f000428e10020
:10477000140034008301d1000281d3008180d30072
:104780000080d3008502e800faff3a00bbff370043
:10479000b40020000428e10007003c0000004000b5
:1047a0008180480002014900838149008502e900b7
:1047b000faff3a00b1ff3700030028000200200092
:1047c000010037006011b8006000b800abff37008f
:1047d000889fbe0000827000040271000482710094
:1047e0002400320036432000c50020008383cf0020
:1047f0000a0039000541b1008283cf00070039006b
:104800000541b1008183cf00040039000541b100aa
:104810008083cf00010039000541b10085c35300fa
:104820006022b800120032000a003b00848272004d
:10483000610260008301d1000281d3008180d30036
:104840000080d3000603e8008743e800f7ff3a0042
:104850000700370000004000818048000201490045
:10486000838149000603e9008743e900f9ff3a0024
:1048700042ff07004f04be00000006001400fa00cb
:10488000889fbe008a9fbe008c9fbe0004067800f1
:104890000004be000205be00680047000a90be008a
:1048a0000890be00130207006200e1000800be008d
:1048b0000a01be00040020000b003a001e02900016
:1048c000e43fb1006e009000fe0090000e099000e1
:1048d0009e099000f300b20005fe2300858171005f
:1048e0000bf0a70003f0a000040e780063ff370070
:1048f0002800fa00889fbe008a9fbe008c9fbe00e1
:1049000003866b0049ff07000028a30064003a00fb
:104910000128a30067003a000008a30062003a00e3
:104920000108a30065003a001e009000be08900038
:1049300081064000ed3fb100f4805700ee01900089
:10494000111ab8008e099000311bb8009e09900022
:10495000311cb800511db800f4855700460007000f
:10496000fe0190003a0007008b85e8003e0007003a
:104970008e09900040000700ee019000340007000f
:104980008b85e800380007008e0990004000070082
:104990009e0990001b18b800890440000a85480051
:1049a000fe019000340007008b85e8003800070006
:1049b000ee019000300007008e0990001b18b8002f
:1049c000890440000a8548000a98a30008003a00bc
:1049d0000402420085824a0006034b0087834b0095
:1049e00008044c0089844c000a054d008d06e9003e
:1049f00084827200850273004c3add0085027200e9
:104a00000100320015002000443ade001400b2001c
:104a10004538de00cb45dd000b007000c540de00f0
:104a2000cb4ddd008b8070004549de00cb55dd00ad
:104a30000b017100c551de000d037800cffe0700a9
:104a400003f0a1000cf0a70003f0a0000bff37005b
:104a50001b18b8008502400006834800e0834b0025
:104a600060044c00070037001b18b8000603400024
:104a700087834800faff37001b18b80087034000ff
:104a800008844800e0844c0060054d0000000600ea
:104a90001b18b8000804400089844800faff37005a
:104aa0000108a300f2fe3a005800be005801be0003
:104ab000e3ff37000008a300edfe3a000904780088
:104ac000f9ff370007f0a200c6fd37006022b800ea
:104ad000060220000000d0008180d2000482d200b3
:104ae0008582d2000000a0000202520083825a0098
:104af000030031000202420083824a000000a1004c
:104b00000603e900f3ff3a0000000600020ab900bc
:104b1000001bb9000200b800810042008100430080
:104b200000000600889fbe008a9fbe00300442003d
:104b3000b0844a0030054b0090854b006000b10006
:104b40000898be000a90be000440e10005c8e100dc
:104b500006d0e10007d8e100020031006800400003
:104b60001008e8004f05be004f04be00000006001c
:104b7000889fbe008a9fbe003004be002005be0094
:104b80000418540005985c0006185d0007985d0045
:104b9000110020000440e10005c8e10006d0e1005a
:104ba00007d8e100010039008000eb0010881000f8
:104bb0004f05be004f04be00000006001200fa00c0
:104bc000889fbe008a9fbe008c9fbe00e0b79f00fa
:104bd000f1b79f0082bf9f0093bf9f000605be00f4
:104be0000404be000000eb00d0b79f00c0b79f00d8
:104bf000b0b79f00a0b79f0090b79f000006eb00e2
:104c00005fb19700cfb09700820141003fb097009d
:104c10000200e00004003d00370007007e805700de
:104c2000c0ff070003003700330007007e805700f5
:104c3000cfff0700dfb697000d00e0000c00350045
:104c40006fb29700ffb297000fbb97009fbb970012
:104c500010002000010020006011b8000002720066
:104c60008182720002037300838373001b000700bc
:104c70000c06e80001042000810f5600e0ff3a0016
:104c80000d00e00004003d000802be000a03be0063
:104c90007e805700a3ff07005fa897000000e00098
:104ca00005003a001fb29700afb297003fb39700dc
:104cb000cfb39700090007006fb09700ffb09700cf
:104cc0000fb997009fb997004f06be004f05be0071
:104cd0004f04be000080fa0000000600010007003b
:104ce00000000600a4b79f00b5b79f00c6b79f009d
:104cf000d7b79f00000006004f09de0082817100d7
:104d0000b3b79f004f01de008180400082807000b9
:104d1000a1b79f008fb097004f09de000000400050
:104d20000200700090b79f007fa897004f01de003f
:104d3000818040008280700081b79f000d000700d5
:104d40004f3ade000000400004007000f0af9f000a
:104d5000080007000402420085824a0006034b0057
:104d600087834b00dfff07000802be000a03be0076
:104d7000000006002fb29700bfb297004fb3970014
:104d8000dfb3970000000600881f7800180020009d
:104d9000881f780089ff07008f87e9004f0478009b
:104da00000000600801feb0084ff07008f87e900ea
:104db00000000600889fbe008a9fbe00e00f5000e2
:104dc000e08f5800e00f5900e08f59000c003d00c3
:104dd0006044b8006055b8000000540081805c0059
:104de00002015d0083815d001800200015000700ae
:104df00008003d00180007000004eb000500370024
:104e00000004eb000f00070002003d001200070045
:104e100018002000dcff07000800e0000600320058
:104e20006022b8006033b8000000520081805a0050
:104e300002015b0083815b004f05be004f04be0092
:104e400000000600e00f5200e08f5a00e00f5b0008
:104e5000e08f5b00000006006044b8006055b800b9
:104e60000402540085825c0006035d0087835d00b8
:104e700000000600889fbe008a9fbe008c1f78003d
:104e8000e00f5000e08f5800e00f5900e08f59000c
:104e90000d003d006044b8006055b80000005400ab
:104ea00081805c0002015d0083815d001c002000a8
:104eb0000820e10009a8e1000ab0e1000bb8e10018
:104ec0000d003d00080037000006eb00e00f520027
:104ed000e08f5a00e00f5b00e08f5b0006003d00b2
:104ee0006044b8006055b8000402540085825c003c
:104ef00006035d0087835d00aaff07000c00e00049
:104f0000060032006022b8006033b8000000520092
:104f100081805a0002015b0083815b004f067800ac
:104f20004f05be004f04be0000000600889fbe0073
:104f30008a9fbe008c1f78000006eb00e00f500037
:104f4000e08f5800e00f5900e08f590007003d0046
:104f50006044b8006055b8000000540081805c00d7
:104f600002015d0083815d001c002000e00f520003
:104f7000e08f5a00e00f5b00e08f5b0007003d0010
:104f80006044b8006055b8000402540085825c009b
:104f900006035d0087835d000c00a2007c00070013
:104fa0000c00e000060032006022b8006033b80058
:104fb0000000520081805a0002015b0083815b0087
:104fc0004f0678004f05be004f04be0000000600eb
:104fd000889fbe008a9fbe008c9fbe000404be0056
:104fe0000605be00809fbe00829fbe002f00070006
:104ff000040678000800be000a01be002b0007006e
:10500000840678004f03be004f02be008d4f76002d
:105010007fb0970013003300f0ff2f008b8f6b00e1
:1050200006003b000d0666000c00a7000a003700d2
:1050300007f0a600100020000a003700880f520079
:10504000898f5a008a0f5b008b8f5b000300390049
:105050001000200001003e000000200007f0a70023
:105060000000ea004f06be004f05be004f04be0020
:1050700000000600e48240001078a3000700320020
:10508000640240001178a3003400be001401be0089
:10509000040032000330a700000006003500be0007
:1050a0001501be000330a0000000060005ff270028
:1050b00005826100070032000428e100010032008f
:1050c000240005000600070001003a004400050026
:1050d0000408050002000700f9ff3a00140005006b
:1050e0006f8261008102700085027100850272008a
:1050f00000000600800078005002be005003be0091
:105100004439de00f700b200f37f200003016100a4
:10511000090032000218e10016003a008501720011
:1051200083017300838173000008200015003a009a
:1051300040002000130037008501720083017300d6
:105140008381730005003a0004a8be0006a8be00d3
:10515000100020000b0037000201e90004024200a9
:1051600085824a0006034b0087834b000748a30053
:10517000f9ff32000740a00004a8be0006a8be0048
:105180002000200080009800920098000000060097
:10519000889fbe008a9fbe008c9fbe000404b8009a
:1051a0000506b8008904460060854e000606b80072
:1051b0000a054600e0854e000706b8008b0546004c
:1051c000040eb800890446000a854e00e0854d00b3
:1051d000050eb8000a0546008b854e00060eb80085
:1051e0008b0546000416b8000a0546008b854e0064
:1051f0000516b8008b054600041eb8008b05460056
:105200000800be000a01be004f06be004f05be00ea
:085210004f04be00000006007f
:020000040000fa
:10521800556100007274000031200000616e0000ca
:105228006420000055610000727400003220000004
:105238006973000020720000656100006479000055
:1052480000540000696d00006572000020690000cc
:10525800732000007265000061640000790000009e
:10526800415300003531000034350000206900004a
:10527800732000007265000061640000790000007e
:10528800505700004d2000006d6f0000647500004d
:105298006c65000020690000732000007265000042
:1052a800616400007900000051750000616400002d
:1052b80072610000747500007265000020450000ee
:1052c8006e6300006f6400006572000020690000d2
:1052d800732000007265000061640000790000001e
:1052e8004932000043200000616e00006420000085
:1052f800494d00005520000069730000207200002d
:1053080065610000647900003a0000004261000015
:10531800736500002064000061740000613a0000b9
:10532800002500002e310000662c0000002500003a
:10533800642c0000002500002e310000660a0000e1
:1053480000250000506c00006561000073650000d6
:1053580020540000757200006e2000006f6e00007f
:1053680020550000534500005220000053770000ec
:1053780069740000636800000a0000000a25000044
:10538800642000002564000020250000642000003f
:10539800256400002025000064200000256400002a
:1053a8000a0000000a4900003243000020520000b1
:1053b80065610000642000005465000073740000fb
:1053c800202c0000204d0000505500003630000011
:1053d8003530000020410000646400007265000060
:1053e800737300003a200000307800002578000030
:1053f800000a000045720000726f0000723a000057
:10540800204900003243000020690000732000009a
:105418006e6f000074200000636f0000727200005d
:1054280065630000746c000079200000736500005b
:1054380074200000757000002e0000000a53000060
:10544800656e0000736f0000722000006973000031
:1054580020770000616b0000656400002075000083
:105468007021000000000000666600008640000011
:105478009a990000993e000000000000804000005a
:105488000000000048430000000000001442000033
:10549800b6f80000be3200008eef00001eb7000014
:1054a800b3ce0000303a000021710000013d000039
:020000040000fa
:1054b8001200fa00889fbe000004780022079800b6
:1054c800330798004407980055079800610798002b
:1054d80076079800070f980000418000e20f5000ff
:1054e8002e013200e20f500005003e000000e000ef
:1054f80008003200e10f5000a400320020033700fa
:10550800e30f5000d7013200e40f50009702320039
:105518001b03370019c0b3000200200003f82b005a
:105528002e009000be009000b7f007000000e000d9
:1055380001003d008044eb000904e0000e00320049
:1055480019c0b30002002000030a24004e00900096
:10555800de009000acf007000000e00001003d0014
:105568008044eb000904e000030032001000200032
:1055780000418800020337000000200001122c00bf
:10558800809fbe00a6702d0037c22300d4cc2c000b
:10559800c5f423004e019000de0190002e0090001b
:1055a800be009000c4070700e48757001041880038
